:020000040000fa
:080000000002040000000000f2
:020000040000fa
:04000800fa020000f8
:020000040000fa
:04000c000c030000e1
:020000040000fa
:0400100024030000c5
:020000040000fa
:0400140002030000e3
:020000040000fa
:0400180014030000cd
:020000040000fa
:04001c001c030000c1
:020000040000fa
:040020002c030000ad
:020000040000fa
:0400240034030000a1
:020000040000fa
:04002800340300009d
:020000040000fa
:04002c003403000099
:020000040000fa
:040030003403000095
:020000040000fa
:040034003403000091
:020000040000fa
:04003800340300008d
:020000040000fa
:04003c003403000089
:020000040000fa
:040040003403000085
:020000040000fa
:040044003403000081
:020000040000fa
:04004800340300007d
:020000040000fa
:04004c003403000079
:020000040000fa
:040050003403000075
:020000040000fa
:040054003403000071
:020000040000fa
:04005800340300006d
:020000040000fa
:04005c003608000062
:020000040000fa
:040060003403000065
:020000040000fa
:040064003403000061
:020000040000fa
:04006800340300005d
:020000040000fa
:04006c003403000059
:020000040000fa
:040070003403000055
:020000040000fa
:040074003403000051
:020000040000fa
:04007800340300004d
:020000040000fa
:04007c003403000049
:020000040000fa
:040080003403000045
:020000040000fa
:040084003403000041
:020000040000fa
:04008800340300003d
:020000040000fa
:04008c003403000039
:020000040000fa
:040090003403000035
:020000040000fa
:040094003403000031
:020000040000fa
:04009800340300002d
:020000040000fa
:04009c003403000029
:020000040000fa
:0400a0003403000025
:020000040000fa
:0400a4003403000021
:020000040000fa
:0400a800340300001d
:020000040000fa
:0400ac003403000019
:020000040000fa
:0400b0003403000015
:020000040000fa
:0400b4003403000011
:020000040000fa
:0400b800340300000d
:020000040000fa
:0400bc003403000009
:020000040000fa
:0400c0003403000005
:020000040000fa
:0400c4003403000001
:020000040000fa
:0400c80034030000fd
:020000040000fa
:0400cc0034030000f9
:020000040000fa
:0400d00034030000f5
:020000040000fa
:0400d40034030000f1
:020000040000fa
:0400d80034030000ed
:020000040000fa
:0400dc0034030000e9
:020000040000fa
:0400e00034030000e5
:020000040000fa
:0400e40034030000e1
:020000040000fa
:0400e80034030000dd
:020000040000fa
:0400ec0034030000d9
:020000040000fa
:0400f00034030000d5
:020000040000fa
:0400f40034030000d1
:020000040000fa
:0400f80034030000cd
:020000040000fa
:0400fc0034030000c9
:020000040000fa
:0401000034030000c4
:020000040000fa
:0401040034030000c0
:020000040000fa
:0401080034030000bc
:020000040000fa
:04010c0034030000b8
:020000040000fa
:0401100034030000b4
:020000040000fa
:0401140034030000b0
:020000040000fa
:0401180034030000ac
:020000040000fa
:04011c0034030000a8
:020000040000fa
:0401200034030000a4
:020000040000fa
:0401240034030000a0
:020000040000fa
:04012800340300009c
:020000040000fa
:04012c003403000098
:020000040000fa
:040130003403000094
:020000040000fa
:040134003403000090
:020000040000fa
:04013800340300008c
:020000040000fa
:04013c003403000088
:020000040000fa
:040140003403000084
:020000040000fa
:040144003403000080
:020000040000fa
:04014800340300007c
:020000040000fa
:04014c003403000078
:020000040000fa
:040150003403000074
:020000040000fa
:040154003403000070
:020000040000fa
:04015800340300006c
:020000040000fa
:04015c003403000068
:020000040000fa
:040160003403000064
:020000040000fa
:040164003403000060
:020000040000fa
:04016800340300005c
:020000040000fa
:04016c003403000058
:020000040000fa
:040170003403000054
:020000040000fa
:040174003403000050
:020000040000fa
:04017800340300004c
:020000040000fa
:04017c003403000048
:020000040000fa
:040180003403000044
:020000040000fa
:040184003403000040
:020000040000fa
:04018800340300003c
:020000040000fa
:04018c003403000038
:020000040000fa
:040190003403000034
:020000040000fa
:040194003403000030
:020000040000fa
:04019800340300002c
:020000040000fa
:04019c003403000028
:020000040000fa
:0401a0003403000024
:020000040000fa
:0401a4003403000020
:020000040000fa
:0401a800340300001c
:020000040000fa
:0401ac003403000018
:020000040000fa
:0401b0003403000014
:020000040000fa
:0401b4003403000010
:020000040000fa
:0401b800340300000c
:020000040000fa
:0401bc003403000008
:020000040000fa
:0401c0003403000004
:020000040000fa
:0401c4003403000000
:020000040000fa
:0401c80034030000fc
:020000040000fa
:0401cc0034030000f8
:020000040000fa
:0401d00034030000f4
:020000040000fa
:0401d40034030000f0
:020000040000fa
:0401d80034030000ec
:020000040000fa
:0401dc0034030000e8
:020000040000fa
:0401e00034030000e4
:020000040000fa
:0401e40034030000e0
:020000040000fa
:0401e80034030000dc
:020000040000fa
:0401ec0034030000d8
:020000040000fa
:0401f00034030000d4
:020000040000fa
:0401f40034030000d0
:020000040000fa
:0401f80034030000cc
:020000040000fa
:0401fc0034030000c8
:020000040000fa
:0402000034030000c3
:020000040000fa
:0402040034030000bf
:020000040000fa
:0402080034030000bb
:020000040000fa
:04020c0034030000b7
:020000040000fa
:0402100034030000b3
:020000040000fa
:0402140034030000af
:020000040000fa
:0402180034030000ab
:020000040000fa
:04021c0034030000a7
:020000040000fa
:0402200034030000a3
:020000040000fa
:04022400340300009f
:020000040000fa
:04022800340300009b
:020000040000fa
:04022c003403000097
:020000040000fa
:040230003403000093
:020000040000fa
:04023400340300008f
:020000040000fa
:04023800340300008b
:020000040000fa
:04023c003403000087
:020000040000fa
:040240003403000083
:020000040000fa
:04024400340300007f
:020000040000fa
:04024800340300007b
:020000040000fa
:04024c003403000077
:020000040000fa
:040250003403000073
:020000040000fa
:04025400340300006f
:020000040000fa
:04025800340300006b
:020000040000fa
:04025c003403000067
:020000040000fa
:040260003403000063
:020000040000fa
:04026400340300005f
:020000040000fa
:04026800340300005b
:020000040000fa
:04026c003403000057
:020000040000fa
:040270003403000053
:020000040000fa
:04027400340300004f
:020000040000fa
:04027800340300004b
:020000040000fa
:04027c003403000047
:020000040000fa
:040280003403000043
:020000040000fa
:100400000f2021000edf24000e01880000000000f4
:10041000000020000000e000020032000001200087
:100420002002880014000700910007000000e0008f
:1004300003003a000088200001002000020037007d
:100440000000200001002000810f70000100320038
:100450000f000700000020000000e0000200320052
:100460000000020000000000e8040200000000009c
:100470000040da000000fe00200020000000e00044
:1004800002003200100020009001880000000600e9
:10049000a1028800800478000000eb001f003700f4
:1004a000e284440054a0b4009905ba00e2844400f8
:1004b00054a0b4009906ba00e284440054a0b400e9
:1004c0000006eb00476fde00fd07b200ae018800ba
:1004d000636ce10003003a000ad801000000eb0061
:1004e0000e003700606ce10008003a00004deb00a0
:1004f0000a05e800020039003420ec000af0a000f0
:100500008b05e900f9ff3e00040037006168e10057
:10051000010032000086eb000b00070019c7ba008b
:100520000e04e0001905ba0003003a000a00e000da
:10053000dbff3a0000000600fe07b200ae028800b2
:100540008a047800f5ff37000cd0a300e20f4d00bd
:100550001c00390089027800354dba000a05e80010
:10056000020039003420ec000af0a0008b05e900fd
:100570000f003200254dba000a05e80002003900dc
:100580003420ec000af0a0008b05e90008003200de
:100590000c00e0000600320015cdba000a05e800a4
:1005a000020039003420ec000af0a0008b05e900bd
:1005b0008984e80054a0b4000b00e000e2ff3a0098
:1005c000000006009902ba00055d78008b05e9007d
:1005d000f7ff3200c82ade00055d78008b05e900d0
:1005e000f3ff32000c00e000f1ff320019ddba0029
:1005f000eeff37003600f800c028a9000000eb002d
:10060000fb0207003600f800fd020700c048a90001
:1006100010002000f60207003600f800c068a900ac
:1006200020002000f20207003600f800c088a90070
:1006300030002000ee0207003600f800c0a8a90034
:1006400040002000ea0207003600f800c608a900b2
:1006500070002000e60207003600f800c488a900f8
:10066000a0002000e20207000040da000000fe00c7
:040670000000050081
:020000040000fa
:100674000000fa00c3e8a800000000000000000029
:100684000080fa00000006000200fa00000f780063
:1006940021028000200f2000008060001e007000f6
:1006a400200288000080fa00000006000000fa0022
:1006b400a9020700d8020700080007006b01070021
:1006c400b80207000f020700e9ff0700000220003c
:1006d400edff07000080fa00000006000000fa00a9
:1006e40000202300203a88004827ef004e27ef001f
:1006f40020102000303a88004420a90044c0a900fa
:1007040044e0a9004480a9001200200080072000d2
:10071400a1092000337420008049780081497800c1
:100724008249780012002000600420007105200036
:100734002374200080497800814978008249780038
:1007440000000000103a8000610060000000e0003a
:10075400fcff3a000080fa00000006000000fa00e6
:10076400003a80000080fa00000006000200fa004f
:10077400faff0700000f78001e007800240007002d
:100784000004e000020032000000280071000700ad
:100794001e0078002a0007000004e0000200320076
:1007a400000024006b0007001e00780032000700e0
:1007b4000004e00002003200002020006500070071
:1007c4001e0078003a0007000004e0000200320036
:1007d400000820005f0007001e00780042000700a8
:1007e4000004e00002003200000420005900070069
:1007f4001e0078004a0007000004e00002003200f6
:1008040000012000530007000080fa0000000600e9
:100814000400fa00100798000040eb00004f780035
:100824001e0090000000e00002003d0010c0b30074
:10083400004f78001e4078000080fa000000060097
:100844000400fa00100798000040eb00004f780005
:100854009e00900000002400008060000000e00082
:100864000200320010c0b300004f78001e40780030
:100874000080fa00000006000400fa001007980047
:100884000040eb00004f78009e0090000020200004
:10089400008060000000e0000200320010c0b300dd
:1008a400004f78001e4078000080fa000000060027
:1008b4000400fa00100798000040eb00004f780095
:1008c4009e00900000082000008060000000e0000e
:1008d4000200320010c0b300004f78001e407800c0
:1008e4000080fa00000006000400fa0010079800d7
:1008f4000040eb00004f78009e00900000042000b0
:10090400008060000000e0000200320010c0b3006c
:10091400004f78001e4078000080fa0000000600b6
:100924000400fa00100798000040eb00004f780024
:100934001e009000700060000000e0000200320021
:1009440010c0b300004f78001e4078000080fa0009
:10095400000006000200fa00000f78009e80ea0002
:10096400003a800000806000003a88000080fa00ad
:10097400000006000000fa004027ef000080fa00a3
:10098400000006000000fa002023a8000080fa00fe
:10099400000006000200fa00000f78001e00780034
:1009a400004078007f4060000080fb007f00600012
:1009b4004219800001fe2f008100610001007000d7
:1009c400401988000080fa00000006000000fa00c8
:1009d40036ff070006000700880007000000eb0050
:1009e400ecff0700e7ff07007c010700ffff37006b
:1009f4000000fa0010002000008888001001200088
:100a0400108888000001200020888800b0ff2f0093
:100a14003088880070fe2f0040888800c0fe2f00b8
:100a240050888800e0ff2f006088880010002000b4
:100a34007088880090ff2f0080888800a0ff2f0016
:100a4400908888000000eb00a08888000080eb00fc
:100a5400b088880070002000c0888800e000200072
:100a6400d0888800c0fe2f00e088880090fc2f000a
:100a7400f0888800e0fe2f000089880050fc2f00d9
:100a84001089880070e72f0020898800b0d62f00d5
:100a94003089880040fc2f0040898800604c200089
:100aa40050898800705c200060898800f0ea2f007b
:100ab4007089880050652f0080898800f06d2f00b0
:100ac40090898800a0e12f00a089880020f72f00da
:100ad400b0898800b0882f00c0898800f0852f0075
:100ae400d089880080922000e0898800b0cc210061
:100af400f0898800b0cc2100008a88008092200010
:100b0400108a8800f0852f00208a8800b0882f0082
:100b1400308a880020f72f00408a8800a0e12f0047
:100b2400508a8800f06d2f00608a880050652f007d
:100b3400708a8800f0ea2f00808a8800705c2000a8
:100b4400908a8800604c2000a08a880040fc2f0016
:100b5400b08a8800b0d62f00c08a880070e72f00c2
:100b6400d08a880050fc2f00e08a8800e0fe2f0025
:100b7400f08a880090fc2f00008b8800c0fe2f00b4
:100b8400108b8800e0002000208b8800700020007b
:100b9400308b88000080eb00408b88000000eb0065
:100ba400508b8800a0ff2f00608b880090ff2f00df
:100bb400708b880010002000808b8800e0ff2f00dd
:100bc400908b8800c0fe2f00a08b880070fe2f0041
:100bd400b08b8800b0ff2f00c08b8800000120007c
:100be400d08b880010012000e08b880010002000ca
:100bf400f08b88000080fa00000006000000fa0074
:100c0400001021000080880000e02400108088008b
:100c140000e0240060028800e0ef240070028800f5
:100c240031028000f0f02f0080806000000a200074
:100c34000100700030028800000000000010210054
:100c440040028800e01f2100500288003102800029
:100c540000ff2f00008060000030a00030028800f8
:100c6400000000000080fa00000006000000fa0006
:100c7400f04220001012880010002000201288008a
:100c8400c0002800001288000080fa00000006005e
:100c94000400fa00000f780011079800000000001b
:100ca40000128000620060000000e000fcff3a00d7
:100cb4001e00780010007800401288000000000038
:100cc4000112800000022000008060000000e000ab
:100cd400fbff3a001e0090004112800001087800da
:100ce4000080fa00000006001800fa00100f9800b7
:100cf400210f9800320f98000000eb00000f7800dd
:100d04000000eb00100798000000eb00700798004b
:100d14000000eb00000f98002000200060079800fe
:100d24002e0890000000d100200f98001e089000ab
:100d34000000e00005003a000000eb0050079800b6
:100d4400700047002007980004003700ee00900070
:100d5400510798009e089000210798003e089000d3
:100d64000000e00005003a000000eb004007980096
:100d74006e0047003007980005003700ee00900031
:100d840041079800be089000310798000000000059
:100d940000128000620060000000e000fcff3a00e6
:100da4001b00370000128000620060000000e000b9
:100db40008003a002e0090001000780040128800cd
:100dc400ae0090005e009000008040002007980074
:100dd4001e0fe80001128000000220000080600065
:100de4000000e0000a003a003e009000411280003a
:100df40001087800be0090004e0090000080400082
:100e0400300798001e0090000000e80010079800ca
:100e14002e0890009e007800808f5000e1ff39007a
:100e24000f003700011280000002200000806000e3
:100e34000000e0000a003a003e00900041128000e9
:100e440001087800be0090004e0090000080400031
:100e5400300798001e0090000000e800100798007a
:100e64009e0090002e089000808f5000edff390006
:100e74001e0078000080fa00000006000400fa005a
:100e8400100798008e0078000e80e80080ff0700ad
:100e94001e0078000080fa00000006000600fa0038
:100ea400000f78001107980022079800ae00900008
:100eb4001e007800010178009e0090008aff070060
:100ec4000080fa00000006000000fa001112800001
:100ed40000402000008060000000e00002003a00b2
:100ee4000000eb0001003700100020000080fa0031
:100ef400000006000000fa00001280000080fa00e2
:100f0400000006000000fa000a21ef0030bb2000b8
:100f140070088800000028009008880080022100e2
:100f24008040eb00014878000080fa0000000600d1
:100f34000000fa00014080000010200000806000e2
:100f44000000e00009003200900221001040780007
:100f54008040e800900221000148780080022100ce
:100f640011c0b300014878000108a9000080fa000c
:100f7400000006000200fa00000f78009e007800ce
:100f840071088800800221008040eb00014878004d
:100f94000080fa00000006000000fa0070088000db
:100fa4000080fa00000006000200fa00000f78003a
:100fb4009e00780051088800800221008040eb00e8
:100fc400014878000080fa00000006000000fa00e2
:100fd400500880000080fa00000006000000fa00bb
:100fe400800221008040eb000148780013e1a80052
:100ff4000080fa00000006000000fa0013e1a900d6
:101004000080fa00000006000200fa0080022100bd
:10101400104f78001e4078000004e0000300320006
:10102400800221008040eb00014878001e407800d7
:101034000080fa00000006000000fa00900221007f
:10104400104078000080fb000080fa0000000600d9
:101054000000fa00900221008040eb000148780073
:101064000080fa00000006003200f800841f7800b7
:10107400851f7800881f78008a1f780004202000cc
:101084009401880014cea80047e0a80047c0a80037
:101094001a8080000880800004188000040d780005
:1010a4004604c3007f0009004604c0001884c7003a
:1010b4000d02cd00048020008d066a0014cea90024
:1010c400f4ff20008d066200040021008d067200ea
:1010d4004d1288001a80880047e0a90047c0a90083
:1010e40001a8a9004f0578004f047800cf027800ca
:0c10f4004f0278003200f90000400600b6
:020000040000fa
:10110000281000000200000080000000081000000d
:101110002000000080000000041000000200000019
:1011200082000000ffff0000061000000200000027
:10113000800000000010000004000000800000009b
:10114000004e0000000100008000000000110000bf
:0c11500000010000800000000000000012
:020000040000fa
:10115c000000fa00042eef00142eef00f001200026
:10116c0000708800e0e32f00807088000c2eef00e8
:10117c001c2eef000a2eef001a2eef00062eef00a9
:10118c00162eef0030012000707088002000200027
:10119c00f07088000080fa00000006000000fa00e1
:1011ac0040742800001988002223ef008050200092
:1011bc00201988002823ef002e23ef003023ef00a6
:1011cc003223ef002623ef00101980004200de00ce
:1011dc007f40600006f0b70021a8a8000080fa004c
:1011ec0000000600000f78009e0078002180880027
:1011fc00ffff37000000fa00800021008007780014
:10120c0000022100000188000080fa0000000600a6
:10121c000000fa0031428000f0f82f0000806000de
:10122c000040a000304288000080fa000000060058
:020000040000fa
:020000040002f8
:04afe000cfff00009f
:020000040000fa
:020000040002f8
:04afe400cfff00009b
:020000040000fa
:020000040002f8
:04afe8007fff0000e7
:020000040000fa
:020000040002f8
:04afec005bff000007
:020000040000fa
:020000040002f8
:04aff000f8ff000066
:020000040000fa
:020000040002f8
:04aff400ffff00005b
:00000001FF
